:1000000000308A00882800000A108A100A1182072E
:1000100020343C343C34533454344134523454341A
:10002000453444342E342E343E343E3420340034AF
:10003000543084008313000803192C280530F8007D
:10004000F701F70B2128F80B20282E30F700F70BCB
:1000500027282A28800B1E28003483168601831245
:10006000530886000130D4001820091583160911A1
:1000700003308312D40018200911831609110130AE
:100080008312D400182000340910831609100A3096
:100090008312D40018200130D3002D200A30D40060
:1000A00018203830D3002D200630D3002D200F30FB
:1000B000D3002D208030D3002D206430D4001820B0
:1000C00009148316091083128A110A12AD28091027
:1000D000831609100A308312D40018200130D3008F
:1000E0002D2009148316091001308312D400182022
:1000F00000344E08840083134F1883175308800080
:10010000840A8001CE0A0319CF0A8A110A12CE2866
:10011000840183131F308305193083169900A230A0
:10012000980090308312980083161F149F141F1597
:100130009F1107309C008312CD01CE01CF01013009
:10014000D1000430D200FA30D4001820D20BA328FA
:10015000891083168910831244280430D200FA30A3
:10016000D4001820D20BAF284D080319BE28023A3C
:100170000319C128033A0319012903290230CD00CC
:100180000329510BFE286720CF012030CE00D20179
:1001900052080420D20AF700D30079280F30520207
:1001A000031DC828D0012030500784008313800825
:1001B0000319F12820305007840083130008D2006F
:1001C00052080C1EE1289900203050078400831348
:1001D0000008D200D3002D206430D4001820D00AAB
:1001E000D3280A300C1EF22899000430D200FA30CD
:1001F000D4001820D20BF728032900290130CD00A4
:0A020000032967200329B4286300D6
:02400E00723FFF
:00000001FF
;PIC16F877A
