:0303AD00010A0042
:10037D00E4FDFCC3ED9FEE6480F8EC6480985007BB
:07038D000DBD00010C80EC26
:010394002246
:1002F40075C902E4F5C8EF7802C333CE33CED8F91A
:10030400FDAC06EC1201A0A804A905AA06AB077F60
:100314007C7EF27D307C411200FEA804A905AA0669
:10032400AB07E4FFFE7D807C471200061201D98EE4
:0B033400088F0975CAFB75CBF1D2CA17
:01033F00229B
:10035F00D3EF9403EE94005010C2A0C2A1C2907FBD
:0E036F00057E0012037DD29022D2A0D2A122E0
:10039500EF24FF9294C2917F057E0012037DD291D6
:0803A500C29212037DD29222E4
:10034000E50A1460080470F8750A0180F3E4FFFE02
:0F03500012035F7F407E4B12037D750A0180E12F
:10000300020245E86480F8E933E83360110460F0E4
:10001300ED33EC337009E8FCE9FDEAFEEBFF220463
:1000230060DED3EB9FEA9EE99DE8C2E78CF0C2F75E
:1000330095F0400CE8CCF8E9CDF9EACEFAEBCFFB2A
:1000430012021085D0F05804700320D5B3E8047071
:10005300075002B2D502024F92D5EC0460F7E4CC0C
:10006300C0E0C398F8603B94186008400DD0E0FBF3
:10007300020227E4FBFAC9FC8028E830E406E4C95D
:10008300FBE4CAFCE830E305E4C9CACBFCE8540747
:100093006010F8C3E913F9EA13FAEB13FBEC13FC52
:1000A300D8F130F52FC3E49CFCEF9BFFEE9AFEEDF5
:1000B30099FDD0E0FBEF4E4D4C701222DB030202A0
:1000C3004CEC2CFCEF33FFEE33FEED33FDED30E76C
:1000D300EB020227EF2BFFEE3AFEED39FDD0E0FBFA
:1000E30050130BBB000302024FED13FDEE13FEEFA3
:0800F30013FFEC13FC020227CD
:1000FB0002024FEC5D046005E859047003020245EF
:10010B00120210580460F6EC4860F2EC7004FDFE2D
:10011B00FF22C860DB2481C85009C39860025006D7
:10012B0002024C9850CAF582E9294B4A7005AB8202
:10013B0002023B75F0007C1A7880C3EF9BEE9AEDC0
:10014B0099400DC3EF9BFFEE9AFEED99FDE842F04F
:10015B00DC23ACF0D0E0FFD0E0FED0E0FDAB8220A2
:10016B00E7101BEB60BAEC2CFCEF33FFEE33FEED2C
:10017B0033FD020227E803F830E705C0F075F00005
:10018B00EF2FFFEE33FEED33FD40B830E7C280AA10
:10019B0075F020800E75F010800575F0087D007EDF
:1001AB00007F003392D530D50312025AEC33401046
:1001BB00EF33FFEE33FEED33FDEC33FCD5F0ED22E8
:0E01CB00E5F0247EA2D513CC92E7CDCEFF2224
:1001D900EDD2E7CD33EC3392D524814006E4FFFE1E
:1001E900FDFC22FCE4CFCECDCC24E0501174FF807D
:1001F900EDC3CC13CCCD13CDCE13CECF13CF04701A
:07020900F030D5DE02025ABD
:10021000E9D2E7C933E833F892D5EDD2E7CD33EC34
:0702200033FC5002B2D522AD
:10022700EC30E7100FBF000C0EBE00080DBD000438
:100237000BEB6014A2D5EB13FCED92E7FD2274FFE4
:10024700FCFDFEFF22E480F8A2D574FF13FC7D803D
:03025700E480EF51
:0300000002026891
:0C026800787FE4F6D8FD7581200202AF1B
:0E025A00C3E49FFFE49EFEE49DFDE49CFC22B5
:10027400020340E493A3F8E493A34003F68001F25D
:1002840008DFF48029E493A3F85407240CC8C3338B
:10029400C4540F4420C8834004F456800146F6DF5A
:1002A400E4800B01020408102040809003ADE47E3A
:1002B400019360BCA3FF543F30E509541FFEE4934F
:1002C400A360010ECF54C025E060A840B8E493A316
:1002D400FAE493A3F8E493A3C8C582C8CAC583CA41
:1002E400F0A3C8C582C8CAC583CADFE9DEE780BEF9
:0103B000004C
:00000001FF
