:03013900011400AE
:0800D0008F0F8E0E8D0D8C0CBC
:1000D800E4F513F512F511F510AF0FAE0EAD0DAC3A
:1000E8000CAB13AA12A911A810C31201285017E5C6
:1000F800132401F513E43512F512E43511F511E472
:060108003510F51080D354
:01010E0022CE
:04008F008E088F093F
:10009300750A00750B01D3E50B9509E50A95085020
:1000A3001DC2A0C2A1C2907F057E007D007C00120C
:1000B30000D0D290050BE50B70DC050A80D8D2A0E6
:0D00C300D2A17F057E007D007C000200D0F0
:10010F00E5141460080470F875140180F37F087EFD
:09011F000012008F75140180E745
:03000000020003F8
:0C000300787FE4F6D8FD75811402004AF5
:10012800EB9FF5F0EA9E42F0E99D42F0E89C45F02D
:0101380022A4
:10000F0002010FE493A3F8E493A34003F68001F2F7
:10001F0008DFF48029E493A3F85407240CC8C333F2
:10002F00C4540F4420C8834004F456800146F6DFC1
:10003F00E4800B0102040810204080900139E47E17
:10004F00019360BCA3FF543F30E509541FFEE493B6
:10005F00A360010ECF54C025E060A840B8E493A37D
:10006F00FAE493A3F8E493A3C8C582C8CAC583CAA8
:10007F00F0A3C8C582C8CAC583CADFE9DEE780BE60
:01013C0000C2
:00000001FF
