:1001CB00000000380000006C000000C6000000C6F4
:1001DB00000000FE000000C6000000C6000000008A
:03020400011800DE
:06012F007E007D007C0053
:080135008F138E128D118C1046
:10013D00E4F517F516F515F514AF13AE12AD11ACB8
:10014D0010AB17AA16A915A814C31201AA5017E5CA
:10015D00172401F517E43516F516E43515F515E4F4
:06016D003514F51480D3E7
:010173002269
:040003008E088F09CB
:10000700E4F50CF50DE4F50EF50FC291C292D2900E
:10001700C290750A00750B01D3E50B9509E50A95A2
:10002700085046E50DAE0C7803C333CE33CED8F96E
:10003700250BFFE50A3EFEEF7802C333CE33CED859
:10004700F924C7F58274013EF5831201BB120174CE
:10005700E4FFFE120174D290C2907F0A12012F05AD
:100067000BE50B70B3050A80AFD291D2927F0512D0
:10007700012F050FE50F7002050EC39464E50E64AA
:100087008094804085050DE50D7002050CC3940131
:0B009700E50C64809480500302000C14
:0100A200223B
:04017400AD07AC0621
:100178007F017E00E4FBFAEC5EF583ED5F4583705A
:1001880004C2B28002D2B2D2B1C2B1EF25E0FFEE12
:1001980033FE0BBB00010AEB64104A70DAD2B0C21E
:0101A800B0A6
:0101A9002233
:1001EB00E5181460080470F875180180F37F087E19
:0901FB000012000375180180E7F1
:030000000200A358
:0C00A300787FE4F6D8FD7581180200EAB1
:1001AA00EB9FF5F0EA9E42F0E99D42F0E89C45F0AB
:0101BA002222
:1001BB00E493FC740193FD740293FE740393FF228A
:1000AF000201EBE493A3F8E493A34003F68001F27B
:1000BF0008DFF48029E493A3F85407240CC8C33352
:1000CF00C4540F4420C8834004F456800146F6DF21
:1000DF00E4800B0102040810204080900204E47EAB
:1000EF00019360BCA3FF543F30E509541FFEE49316
:1000FF00A360010ECF54C025E060A840B8E493A3DD
:10010F00FAE493A3F8E493A3C8C582C8CAC583CA07
:10011F00F0A3C8C582C8CAC583CADFE9DEE780BEBF
:0102070000F6
:00000001FF
