:0301AC000110003F
:040127007D007C00DB
:08012B008F0B8E0A8D098C0870
:10013300E4F50FF50EF50DF50CAF0BAE0AAD09ACFA
:1001430008AB0FAA0EA90DA80CC312019B5017E50B
:100153000F2401F50FE4350EF50EE4350DF50DE42E
:06016300350CF50C80D301
:010169002273
:10008F00D3EF9408EE648094805024D291C291C231
:10009F00A0E4FCFDC3ED9FEE6480F8EC6480985003
:1000AF000BC290D2900DBD00010C80E8D2A022D2DD
:1000BF0092C292C2A17C007D08C3ED9FEE6480F8CE
:1000CF00EC648098500BC290D2900DBD00010C8053
:0300DF00E8D2A1C3
:0100E20022FB
:1000E3007D017C00EF14FF74017E00A807088005E2
:1000F300C333CE33CED8F9FBAA06900000EA5CFEE8
:10010300EB5D4E7004C2B28002D2B2D2B1C2B1ED85
:1001130025E0FDEC33FCA3E5826420458370DED249
:03012300B0C2B0B7
:0101260022B6
:10016A007FE87E031201277F017E0012008F1201B1
:10017A0027E5101460080470F875100180F37F10E9
:10018A007E001200E37F017E0012012775100180B4
:01019A00E084
:03000000020003F8
:0C000300787FE4F6D8FD75811002004AF9
:10019B00EB9FF5F0EA9E42F0E99D42F0E89C45F0BA
:0101AB002231
:10000F0002016AE493A3F8E493A34003F68001F29C
:10001F0008DFF48029E493A3F85407240CC8C333F2
:10002F00C4540F4420C8834004F456800146F6DFC1
:10003F00E4800B01020408102040809001ACE47EA4
:10004F00019360BCA3FF543F30E509541FFEE493B6
:10005F00A360010ECF54C025E060A840B8E493A37D
:10006F00FAE493A3F8E493A3C8C582C8CAC583CAA8
:10007F00F0A3C8C582C8CAC583CADFE9DEE780BE60
:0101AF00004F
:00000001FF
